:040000000C94AC01AF
:04000C000C947204DA
:040020000C949D029D
:04002C000C945B02D3
:140054000000000000A8FA0C00E6FA040003FB080037FB04CA
:140068000065FB040037FB2000E6FA0C00A8FA040063FA08D7
:14007C0000EAF9040063FA0400A8FA200003FB0C00A8FA04B6
:1400900000A8FA080065FB080037FB200063FA1600A8FA04DF
:1400A40000E6FA080003FB0400E6FA0400A8FA200065FB1840
:1400B80000A8FA080037FB180065FB040037FB040003FB1098
:1400CC000003FB0400A8FA040003FB040037FB0400E6FA1848
:1400E0000003FB040037FB040065FB180037FB040003FB0424
:1400F4000037FB200063FA0400A8FA0400E6FA1000E6FA04CB
:140108000063FA0400A8FA2000A8FA0C00E6FA040003FB0828
:14011C000037FB040065FB040037FB2000E6FA0C00A8FA0451
:140130000063FA0800EAF9040063FA0400A8FA200003FB0C42
:1401440000A8FA0400A8FA080065FB080037FB200063FA0C34
:1401580000A8FA0400E6FA080003FB0400E6FA0400A8FA205D
:14016C000065FB1800A8FA080037FB180065FB040037FB0479
:140180000003FB100003FB0400A8FA040003FB040037FB047D
:1401940000E6FA180003FB040037FB040065FB180037FB0479
:1401A8000003FB040037FB200063FA0400A8FA0400E6FA10F8
:1401BC0000A8FA040063FA0400A8FA200065FB180037FB04B8
:1401D0000003FB040037FB200003FB1800E6FA0400A8FA0427
:1401E40000E6FA180003FB040037FB040065FB180065FB04FB
:1401F80000A8FA040037FB180065FB040037FB040003FB105B
:14020C000003FB0400A8FA040003FB040037FB0400E6FA20FE
:140220000065FB1800A8FA080037FB180065FB040037FB04C4
:140234000003FB100003FB0400A8FA040003FB040037FB04C8
:1402480000E6FA180003FB040037FB040065FB180037FB04C4
:14025C000003FB040037FB180065FB040037FB040003FB1892
:1402700000A8FA0800E6FA180003FB0800A8FA2000A8FA204E
:1402840000FF007468652070617373776F726400706C6561F1
:14029800736520656E7465720057726F6E6721007061737357
:1402AC00776F72643A00523A33303000523A313030004C3A86
:1402C000333030004C3A31303000312832293A4C2034283595
:1402D400293A52004C3A35303020523A353030004D4F4445E0
:1402E8003A31004D4F44453A3200312832293A636F6E7472F2
:1402FC006F6C006C65642E2E0073687574646F776E20746F03
:1403100020657869740062757A7A2E2E73656E64202A206F55
:140324007200346669785F70617373776F7264003162656CA2
:140338006C326C6564336D6F746F720077656C636F6D65008E
:14034C006279204A6173706572000180CFE5D4E0CDBFDEBF2B
:14036000CE51D0400AEA08830024E4E6F3E013E0E637F10712
:1403740011F00192FBCF0083E4E5F0E0A0E6B0E013E000E012
:140388000BBFE835F10721F0C89531960D92F9CF0E94CF0174
:14039C00FFCF229748E553E077D022242092640004E60E9437
:1403B000330800936400002369F5E2D10E94310708EC10E015
:1403C4000E94940780E593E099838883222705E00E943707DB
:1403D80019C0FA012080288221E000916403109165030E944F
:1403EC0052074F5F5F4F809164039091650301969093650325
:140400008093640304E610E00E949407FA012080222019F76A
:140414000E94310780E493E099838883222700270E943707AC
:1404280082E393E09983888321E000270E9437072AC0222786
:14043C0004E60E94200880916100813399F40E94310782E207
:1404500093E099838883222700270E94370781E193E09983BD
:14046400888321E000270E9437078ED080916100823309F4EF
:14047800DCD080916100833309F422D180916100843309F486
:14048C00D1D1D5CF22960895F8940E94A5070E9406070E9496
:1404A000BE070E9464070E94FE070E94DC070E940F07789486
:1404B40008950A921A922A923A924A925A926A927A928A92DB
:1404C8009A920A931A932A933A938A939A93AA93BA93EA93CF
:1404DC00FA930FB60A924A934CB1433781F421E004E60E94C8
:1404F000200822273327002711270E94EE070AE010E00E94BB
:1405040094070E940008499109900FBEF991E991B991A991D6
:1405180099918991399129911991099199908990799069907F
:14052C0059904990399029901990099018952A923A928A93E3
:140540009A932FB62A9220906E0330906F03222011F43320EC
:14055400A1F080E890E022B233242826392622BA20906E0355
:1405680030906F03232C33242DBC80916E0390916F039070A9
:14057C008CBD29902FBE99918991399029901895EF97EF97FD
:14059000EF97EF97EF97EF97EF97EF97E69785E690E0FE01DC
:1405A4000EE212E0FA93EA939A938A930E9409090E94D707D9
:1405B80002C08E010BD0FDCFEF96EF96EF96EF96EF96EF9619
:1405CC00EF96EF96E69608954A935A93A80121C084E089BFF8
:1405E000FA012080318030926F0320926E03232C33242DBCD5
:1405F40080916E0390916F0390708CBD4E5F5F4FFA0120819E
:14060800318104E310E00E945C080E949407222429BE4E5F38
:14061C005F4FFA01808191818F3FE0E09E07C1F65991499160
:1406300008954A936A93229741E060E80E9431078BE093E065
:1406440099838883222700270E9437078EEF92E09983888315
:1406580022E000270E9437072EC0262F3327042F11270E94DB
:14066C00EE0780916100823359F487EF92E0998388832227B9
:1406800006E00E943707440F66950AC0660F469580EF92E057
:1406940099838883222706E00E943707442349F48091610006
:1406A800823319F441E060E802C061E040E804E610E00E946C
:1406BC009407D1CF22966991499108950E94B208229744EF7E
:1406D00051E064EF71E00E94310784EE92E099838883222713
:1406E40000270E94370786ED92E09983888321E000270E9425
:1406F80037070E940F083CC080916100813351F464E670E0F6
:14070C0080ED92E099838883222700270E9437078091610011
:14072000823351F46CE271E08AEC92E09983888322270027AD
:140734000E94370780916100843351F444E650E084EC92E027
:1407480099838883222706E00E94370780916100853351F4F8
:14075C004CE251E08EEB92E099838883222706E00E94370709
:140770009A018B010E940608C3CF22960C94B7080E94BC088F
:14078400229741E0662796D04DC00E94310784EB92E09983B0
:140798008883222700270E943707442341F48DEA92E0998351
:1407AC008883222709E00E9437076627AA2418C004E610E00F
:1407C0000E949407209062002220E1F386E693E0EA2DFF27A4
:1407D400E80FF91F2090610020828AE2888321E00A2D0E94FE
:1407E8005207A3948A2D843028F3AA2412C086E693E0EA2D51
:1407FC00FF27E80FF91F20808AE693E0EA2DFF27E80FF91FE5
:140810003080321409F46395A3948A2D843058F3643009F46B
:1408240002C04427B2CF22960C94C3084A935A9326970E94C6
:14083800310780EA92E099838883222700270E94370783E9B5
:14084C0092E09983888321E000270E9437074427552712C03E
:1408600004E610E00E949407209062002220E1F3CE010296DE
:14087400FA01E80FF91F2090610020824F5F5F4F4430E0E023
:140888005E0750F39E012E5F3F4F00270E9444082227332742
:14089C00002711270E94EE0721E004E60E9420080E940008F3
:1408B00026965991499108954A930CE211E00E9494074427B3
:1408C4000BC0042F0E9433088AE693E0E42FFF27E80FF91F1A
:1408D80000834395443098F3499108950A921A922A923A926B
:1408EC004A925A926A927A928A929A920A931A932A933A930C
:140900008A939A93AA93BA93EA93FA930FB60A920E94B20848
:14091400369A349BFECF25B033244424552442E453E160E0BC
:1409280070E05A924A923A922A928A019B010E946C0888E076
:14093C0090E08A930E94FD0810937103009370033498222444
:14095000209262000433E2E11E0739F5369A349BFECF25B0F1
:1409640033244424552442E453E160E070E05A924A923A92C9
:140978002A928A019B010E946C0888E090E08A930E94FD08D6
:14098C00109371030093700334980433E2E11E0731F481E0C9
:1409A0008093620081E3809361008091700390917103863225
:1409B400E1E19E0739F5369A349BFECF25B033244424552421
:1409C80042E453E160E070E05A924A923A922A928A019B01BA
:1409DC000E946C0888E090E08A930E94FD08109371030093AB
:1409F000700334980632E1E11E0731F481E08093620082E335
:140A04008093610080917003909171038C32E0E19E0739F5FF
:140A1800369A349BFECF25B033244424552442E453E160E0B7
:140A2C0070E05A924A923A922A928A019B010E946C0888E071
:140A400090E08A930E94FD08109371030093700334980C3247
:140A5400E0E11E0731F481E08093620083E3809361008091C2
:140A68007003909171038E31EFE09E0739F5369A349BFECFA5
:140A7C0025B033244424552442E453E160E070E05A924A92A7
:140A90003A922A928A019B010E946C0888E090E08A930E94F6
:140AA400FD08109371030093700334980E31EFE01E0731F4F8
:140AB80081E08093620084E380936100809170039091710360
:140ACC008131EEE09E0739F5369A349BFECF25B033244424C3
:140AE000552442E453E160E070E05A924A923A922A928A01C4
:140AF4009B010E946C0888E090E08A930E94FD081093710389
:140B08000093700334980131EEE01E0731F481E080936200E7
:140B1C0085E38093610080917003909171038631EDE09E07A7
:140B300039F5369A349BFECF25B033244424552442E453E1B0
:140B440060E070E05A924A923A922A928A019B010E946C0880
:140B580088E090E08A930E94FD081093710300937003349804
:140B6C000631EDE01E0731F481E08093620086E38093610074
:140B800080917003909171038C31ECE09E0739F5369A349B4D
:140B9400FECF25B033244424552442E453E160E070E05A929D
:140BA8004A923A922A928A019B010E946C0888E090E08A93A3
:140BBC000E94FD08109371030093700334980C31ECE01E0767
:140BD00031F481E08093620087E38093610080917003909193
:140BE40071038E30EBE09E0739F5369A349BFECF25B0332495
:140BF8004424552442E453E160E070E05A924A923A922A92CE
:140C0C008A019B010E946C0888E090E08A930E94FD08109358
:140C200071030093700334980E30EBE01E0731F481E08093B3
:140C3400620088E38093610080917003909171038431EAE0D3
:140C48009E0739F5369A349BFECF25B033244424552442E426
:140C5C0053E160E070E05A924A923A922A928A019B010E94A7
:140C70006C0888E090E08A930E94FD08109371030093700343
:140C840034980431EAE01E0731F481E08093620089E38093F2
:140C9800610080917003909171038630E9E09E07B9F5369A2C
:140CAC00349BFECF25B033244424552442E453E160E070E0A1
:140CC0005A924A923A922A928A019B010E946C0888E090E0BB
:140CD4008A930E94FD08109371030093700334980630E9E060
:140CE8001E07B1F481E0809362008AE2809361008091630004
:140CFC00853061F022273327002711270E94EE0721E004E65A
:140D10000E9420080E94000880917003909171038C30E8E0BE
:140D24009E0739F5369A349BFECF25B033244424552442E449
:140D380053E160E070E05A924A923A922A928A019B010E94CA
:140D4C006C0888E090E08A930E94FD08109371030093700366
:140D600034980C30E8E01E0731F481E08093620080E3809319
:140D7400610080917003909171038231E7E09E0739F5369AD4
:140D8800349BFECF25B033244424552442E453E160E070E0C4
:140D9C005A924A923A922A928A019B010E946C0888E090E0DE
:140DB0008A930E94FD08109371030093700334980231E7E088
:140DC4001E0731F481E08093620083E28093610081E08093AE
:140DD80060000E94B70809900FBEF991E991B991A99199912E
:140DEC008991399129911991099199908990799069905990E4
:140E0000499039902990199009901895222426B887E687B9C3
:140E140080E888B983E886B908958AE085BD89B7806889BFBE
:140E28008DE783BD0895AA92A02E92989398969AA5BA05E092
:140E3C0010E00E9489079698A9900895AA92A02E929A93981B
:140E5000969AA5BA05E010E00E9489079698A990089501E013
:140E6400E4DF05E010E00C9494070E94BC08A22E602F4E8113
:140E78005F81AA2021F4062F0058D5DF09C0062F0054D1DF64
:140E8C0005C0FA010081DADF4F5F5F4FFA0120802220B9F76F
:140EA0000C94C3080E94CA08C22E402FAE80CC2021F4042F9E
:140EB4000058BBDF03C0042F0054B7DF0A2DC2DF0C94D10807
:140EC8008FEF84BB81B38C6481BB08E3ACDF05E010E00E940C
:140EDC00940708E3A6DF05E010E00E94940708E3A0DF05E096
:140EF00010E00E94940708E39ADF08E098DF01E096DF06E0C2
:140F040094DF05E010E00E9494070CE08ECF0030010709F4D6
:140F180006C0C80101978C0100300107D1F708950E94B20818
:140F2C0041E050E007C061E001C063956623E9F74F5F5F4FDA
:140F400040175107B0F30C94B7088FEF84BB85BB222421BACE
:140F540082BB87B38F6F87BB88B3807F88BB8A9A92988B9AE2
:140F680093988C9A94988D9A95988E9A96988F9A9798089559
:140F7C0022242AB882E08BB986E880BD8CE089B988E98AB986
:140F900008955D9BFECF0CB908955F9BFECF0CB108950DE07B
:140FA400F6DF0AE0F4CF00E2F2CF8F9A979881E08EBD089573
:140FB800BD9ABC98BF9ABC9A80E58DB922242EB80895AA921B
:140FCC007699FECF0FB9779BFECFAFB0A9900895AA92CA92C1
:140FE000A22EC02E0C2D0E94E5070A2D0E94E507C498C49AF9
:140FF400C498C990A9900895BC9A089581B5886181BD88E0A6
:1410080081BD0895C09AC198C29AC3981BBD0ABD39BD28BD15
:14101C00089581B3806381BB82B38F7C82BB83EA8FBD82E038
:141030008EBD222433243BBC2ABC39BC28BC0895AA92BA92E9
:14104400AFB6BB248FE78FBFE199FECF22242FBA0EBB2DBB69
:14105800E29AE198E19AAFBEB990A9900895AA92BA92AFB69B
:14106C00BB248FE78FBFE199FECF22242FBA0EBBE09AAFBEA7
:141080000DB3B990A99008950E94AB086901E02EAA2409C019
:14109400EA2DFF27EC0DFD1D20810E2DCFDFA394E394EA2DA9
:1410A800FF27EC0DFD1D2080222081F70C94A0080A921A9211
:1410BC008A939A93029FC001129F900D039F900D8C01999130
:1410D00089911990099008950E94D8087A920E94F10859F1A0
:1410E40077240E94F70819F48C019D0124C00A921A92089FB1
:1410F800B02CA12C289F902C812C189FA00C911C871C099FB0
:14110C00A00C911C871C199F900C811C0A9F900C811C389F29
:14112000800C299F800C1A9F800C0B9F800C199009900B2DE6
:141134001A2D292D382D79900C94E608A990B990C990D990CA
:14114800E990F99008957A936A935A934A93FA92EA92DA92AC
:14115C00CA92BA92AA9208957A936A935A934A9308954991B3
:1411700059916991799108957A936A935A934A93BA92AA9284
:141184000895A990B990499159916991799108955A934A9309
:14119800DA92CA92BA92AA920895A990B990C990D990499138
:1411AC00599108958A929A92AA92BA92EA938A939A93AA93D4
:1411C000BA9389859A85AB85BC850895B991A99199918991CB
:1411D400E991B990A9909990899024960895EE27E02BE12B46
:1411E800E22BE32B0895EE27E82BE92BEA2BEB2B08950F9296
:1411FC000990002031F036952795179507950A94F8CF0F9032
:141210000895AA93BA93EA93FA930A92AF81B885ED81FE81A3
:141224000030010729F001900D9201501040F8CF0990F991AA
:0A123800E991B991A9912496089557
:00000001FF
